{"contracts/Raffle.sol":{"Raffle":{"abi":[{"inputs":[{"internalType":"address","name":"verfCoordinatorV2","type":"address"},{"internalType":"uint256","name":"entranceFee","type":"uint256"},{"internalType":"bytes32","name":"gasLane","type":"bytes32"},{"internalType":"uint64","name":"subscriptionId","type":"uint64"},{"internalType":"uint32","name":"callbackGasLimit","type":"uint32"},{"internalType":"uint256","name":"interval","type":"uint256"}],"stateMutability":"nonpayable","type":"constructor"},{"inputs":[{"internalType":"address","name":"have","type":"address"},{"internalType":"address","name":"want","type":"address"}],"name":"OnlyCoordinatorCanFulfill","type":"error"},{"inputs":[],"name":"Raffle__NotEnoughETHEntered","type":"error"},{"inputs":[],"name":"Raffle__NotOpen","type":"error"},{"inputs":[],"name":"Raffle__TransferFailed","type":"error"},{"inputs":[{"internalType":"uint256","name":"currentBalance","type":"uint256"},{"internalType":"uint256","name":"numPlayers","type":"uint256"},{"internalType":"uint256","name":"raffleState","type":"uint256"}],"name":"Raffle__UpkeepNotNeeded","type":"error"},{"anonymous":false,"inputs":[{"indexed":true,"internalType":"address","name":"player","type":"address"}],"name":"RaffleEnter","type":"event"},{"anonymous":false,"inputs":[{"indexed":true,"internalType":"uint256","name":"requestId","type":"uint256"}],"name":"RequestedRaffleWinner","type":"event"},{"anonymous":false,"inputs":[{"indexed":true,"internalType":"address","name":"winner","type":"address"}],"name":"WinnerPicked","type":"event"},{"inputs":[{"internalType":"bytes","name":"","type":"bytes"}],"name":"checkUpkeep","outputs":[{"internalType":"bool","name":"upkeepNeeded","type":"bool"},{"internalType":"bytes","name":"","type":"bytes"}],"stateMutability":"view","type":"function"},{"inputs":[],"name":"enterRaffle","outputs":[],"stateMutability":"payable","type":"function"},{"inputs":[],"name":"getEntranceFee","outputs":[{"internalType":"uint256","name":"","type":"uint256"}],"stateMutability":"view","type":"function"},{"inputs":[{"internalType":"uint256","name":"index","type":"uint256"}],"name":"getPlayers","outputs":[{"internalType":"address","name":"","type":"address"}],"stateMutability":"view","type":"function"},{"inputs":[],"name":"getRaffleState","outputs":[{"internalType":"enum Raffle.RaffleSate","name":"","type":"uint8"}],"stateMutability":"view","type":"function"},{"inputs":[],"name":"getRecentWinner","outputs":[{"internalType":"address","name":"","type":"address"}],"stateMutability":"view","type":"function"},{"inputs":[{"internalType":"bytes","name":"","type":"bytes"}],"name":"performUpkeep","outputs":[],"stateMutability":"nonpayable","type":"function"},{"inputs":[{"internalType":"uint256","name":"requestId","type":"uint256"},{"internalType":"uint256[]","name":"randomWords","type":"uint256[]"}],"name":"rawFulfillRandomWords","outputs":[],"stateMutability":"nonpayable","type":"function"}],"devdoc":{"author":"Patrick Collins - Blockchain, Solidity and Hardhat Course","details":"This implements the Chainlink VRF Version 2 and Keepers","kind":"dev","methods":{"checkUpkeep(bytes)":{"details":"This is the function that Chainlink  Keeper nodes call they look for the `upkeepNeeded` to return true the following should be true in order to return true 1. Our time interval should have passed 2. The lottery should have at least 1 player, and have some ETH 3. Our subscription is funded with LINK 4. The lottery should be in \"open\" state"},"getEntranceFee()":{"details":"@return entrance fee (immutable)"},"getPlayers(uint256)":{"details":"@param index - index of the entered player"},"performUpkeep(bytes)":{"details":"Once `checkUpkeep` is returning `true`, this function is called and it kicks off a Chainlink VRF call to get a random winner."}},"title":"A sample Raffle Contract","version":1},"evm":{"bytecode":{"linkReferences":{},"object":"6101606040523480156200001257600080fd5b50604051620016ee380380620016ee8339818101604052810190620000389190620002a0565b858073ffffffffffffffffffffffffffffffffffffffff1660808173ffffffffffffffffffffffffffffffffffffffff1660601b81525050508460a081815250508573ffffffffffffffffffffffffffffffffffffffff1660c08173ffffffffffffffffffffffffffffffffffffffff1660601b815250508360e081815250508267ffffffffffffffff166101008167ffffffffffffffff1660c01b815250508163ffffffff166101208163ffffffff1660e01b815250506000600160146101000a81548160ff021916908360018111156200011957620001186200033c565b5b0217905550426002819055508061014081815250505050505050506200036b565b600080fd5b600073ffffffffffffffffffffffffffffffffffffffff82169050919050565b60006200016c826200013f565b9050919050565b6200017e816200015f565b81146200018a57600080fd5b50565b6000815190506200019e8162000173565b92915050565b6000819050919050565b620001b981620001a4565b8114620001c557600080fd5b50565b600081519050620001d981620001ae565b92915050565b6000819050919050565b620001f481620001df565b81146200020057600080fd5b50565b6000815190506200021481620001e9565b92915050565b600067ffffffffffffffff82169050919050565b62000239816200021a565b81146200024557600080fd5b50565b60008151905062000259816200022e565b92915050565b600063ffffffff82169050919050565b6200027a816200025f565b81146200028657600080fd5b50565b6000815190506200029a816200026f565b92915050565b60008060008060008060c08789031215620002c057620002bf6200013a565b5b6000620002d089828a016200018d565b9650506020620002e389828a01620001c8565b9550506040620002f689828a0162000203565b94505060606200030989828a0162000248565b93505060806200031c89828a0162000289565b92505060a06200032f89828a01620001c8565b9150509295509295509295565b7f4e487b7100000000000000000000000000000000000000000000000000000000600052602160045260246000fd5b60805160601c60a05160c05160601c60e0516101005160c01c6101205160e01c6101405161130e620003e060003960006106f90152600061057d0152600061055a01526000610539015260006104fd0152600081816101dc01526102d9015260008181610219015261026d015261130e6000f3fe60806040526004361061007b5760003560e01c80634585e33b1161004e5780634585e33b14610109578063460e204914610132578063473f1ddc1461016f5780636e04ff0d1461019a5761007b565b806309bc33a714610080578063115cbaf5146100ab5780631fe543e3146100d65780632cfcc539146100ff575b600080fd5b34801561008c57600080fd5b506100956101d8565b6040516100a29190610a8f565b60405180910390f35b3480156100b757600080fd5b506100c0610200565b6040516100cd9190610b21565b60405180910390f35b3480156100e257600080fd5b506100fd60048036038101906100f89190610cd5565b610217565b005b6101076102d7565b005b34801561011557600080fd5b50610130600480360381019061012b9190610d8c565b610446565b005b34801561013e57600080fd5b5061015960048036038101906101549190610dd9565b610645565b6040516101669190610e47565b60405180910390f35b34801561017b57600080fd5b5061018461068c565b6040516101919190610e47565b60405180910390f35b3480156101a657600080fd5b506101c160048036038101906101bc9190610f17565b6106b6565b6040516101cf929190611003565b60405180910390f35b60007f0000000000000000000000000000000000000000000000000000000000000000905090565b6000600160149054906101000a900460ff16905090565b7f000000000000000000000000000000000000000000000000000000000000000073ffffffffffffffffffffffffffffffffffffffff163373ffffffffffffffffffffffffffffffffffffffff16146102c957337f00000000000000000000000000000000000000000000000000000000000000006040517f1cf993f40000000000000000000000000000000000000000000000000000000081526004016102c0929190611033565b60405180910390fd5b6102d3828261079e565b5050565b7f0000000000000000000000000000000000000000000000000000000000000000341015610331576040517fbd4e069500000000000000000000000000000000000000000000000000000000815260040160405180910390fd5b6000600181111561034557610344610aaa565b5b600160149054906101000a900460ff16600181111561036757610366610aaa565b5b1461039e576040517f1425571c00000000000000000000000000000000000000000000000000000000815260040160405180910390fd5b6000339080600181540180825580915050600190039060005260206000200160009091909190916101000a81548173ffffffffffffffffffffffffffffffffffffffff021916908373ffffffffffffffffffffffffffffffffffffffff1602179055503373ffffffffffffffffffffffffffffffffffffffff167f0805e1d667bddb8a95f0f09880cf94f403fb596ce79928d9f29b74203ba284d460405160405180910390a2565b6000610460604051806020016040528060008152506106b6565b509050806104cf5747600080549050600160149054906101000a900460ff16600181111561049157610490610aaa565b5b6040517f584327aa0000000000000000000000000000000000000000000000000000000081526004016104c69392919061105c565b60405180910390fd5b60018060146101000a81548160ff021916908360018111156104f4576104f3610aaa565b5b021790555060007f000000000000000000000000000000000000000000000000000000000000000073ffffffffffffffffffffffffffffffffffffffff16635d3b1d307f00000000000000000000000000000000000000000000000000000000000000007f000000000000000000000000000000000000000000000000000000000000000060037f000000000000000000000000000000000000000000000000000000000000000060016040518663ffffffff1660e01b81526004016105be95949392919061110b565b602060405180830381600087803b1580156105d857600080fd5b505af11580156105ec573d6000803e3d6000fd5b505050506040513d601f19601f820116820180604052508101906106109190611173565b9050807fcd6e45c8998311cab7e9d4385596cac867e20a0587194b954fa3a731c93ce78b60405160405180910390a250505050565b600080828154811061065a576106596111a0565b5b9060005260206000200160009054906101000a900473ffffffffffffffffffffffffffffffffffffffff169050919050565b6000600160009054906101000a900473ffffffffffffffffffffffffffffffffffffffff16905090565b600060606000600160149054906101000a900460ff1660018111156106de576106dd610aaa565b5b600060018111156106f2576106f1610aaa565b5b14905060007f00000000000000000000000000000000000000000000000000000000000000006002544261072691906111fe565b119050600080600080549050119050600080471190508380156107465750825b801561074f5750815b80156107585750805b9550856040518060400160405280600381526020017f30783000000000000000000000000000000000000000000000000000000000008152509550955050505050915091565b60008080549050826000815181106107b9576107b86111a0565b5b60200260200101516107cb9190611261565b905060008082815481106107e2576107e16111a0565b5b9060005260206000200160009054906101000a900473ffffffffffffffffffffffffffffffffffffffff16905080600160006101000a81548173ffffffffffffffffffffffffffffffffffffffff021916908373ffffffffffffffffffffffffffffffffffffffff1602179055506000600160146101000a81548160ff0219169083600181111561087657610875610aaa565b5b0217905550600067ffffffffffffffff81111561089657610895610b92565b5b6040519080825280602002602001820160405280156108c45781602001602082028036833780820191505090505b50600090805190602001906108da9291906109cf565b504260028190555060008173ffffffffffffffffffffffffffffffffffffffff1647604051610908906112c3565b60006040518083038185875af1925050503d8060008114610945576040519150601f19603f3d011682016040523d82523d6000602084013e61094a565b606091505b5050905080610985576040517fa1d04b3900000000000000000000000000000000000000000000000000000000815260040160405180910390fd5b8173ffffffffffffffffffffffffffffffffffffffff167f5b690ec4a06fe979403046eaeea5b3ce38524683c3001f662c8b5a829632f7df60405160405180910390a25050505050565b828054828255906000526020600020908101928215610a48579160200282015b82811115610a475782518260006101000a81548173ffffffffffffffffffffffffffffffffffffffff021916908373ffffffffffffffffffffffffffffffffffffffff160217905550916020019190600101906109ef565b5b509050610a559190610a59565b5090565b5b80821115610a72576000816000905550600101610a5a565b5090565b6000819050919050565b610a8981610a76565b82525050565b6000602082019050610aa46000830184610a80565b92915050565b7f4e487b7100000000000000000000000000000000000000000000000000000000600052602160045260246000fd5b60028110610aea57610ae9610aaa565b5b50565b6000819050610afb82610ad9565b919050565b6000610b0b82610aed565b9050919050565b610b1b81610b00565b82525050565b6000602082019050610b366000830184610b12565b92915050565b6000604051905090565b600080fd5b600080fd5b610b5981610a76565b8114610b6457600080fd5b50565b600081359050610b7681610b50565b92915050565b600080fd5b6000601f19601f8301169050919050565b7f4e487b7100000000000000000000000000000000000000000000000000000000600052604160045260246000fd5b610bca82610b81565b810181811067ffffffffffffffff82111715610be957610be8610b92565b5b80604052505050565b6000610bfc610b3c565b9050610c088282610bc1565b919050565b600067ffffffffffffffff821115610c2857610c27610b92565b5b602082029050602081019050919050565b600080fd5b6000610c51610c4c84610c0d565b610bf2565b90508083825260208201905060208402830185811115610c7457610c73610c39565b5b835b81811015610c9d5780610c898882610b67565b845260208401935050602081019050610c76565b5050509392505050565b600082601f830112610cbc57610cbb610b7c565b5b8135610ccc848260208601610c3e565b91505092915050565b60008060408385031215610cec57610ceb610b46565b5b6000610cfa85828601610b67565b925050602083013567ffffffffffffffff811115610d1b57610d1a610b4b565b5b610d2785828601610ca7565b9150509250929050565b600080fd5b60008083601f840112610d4c57610d4b610b7c565b5b8235905067ffffffffffffffff811115610d6957610d68610d31565b5b602083019150836001820283011115610d8557610d84610c39565b5b9250929050565b60008060208385031215610da357610da2610b46565b5b600083013567ffffffffffffffff811115610dc157610dc0610b4b565b5b610dcd85828601610d36565b92509250509250929050565b600060208284031215610def57610dee610b46565b5b6000610dfd84828501610b67565b91505092915050565b600073ffffffffffffffffffffffffffffffffffffffff82169050919050565b6000610e3182610e06565b9050919050565b610e4181610e26565b82525050565b6000602082019050610e5c6000830184610e38565b92915050565b600080fd5b600067ffffffffffffffff821115610e8257610e81610b92565b5b610e8b82610b81565b9050602081019050919050565b82818337600083830152505050565b6000610eba610eb584610e67565b610bf2565b905082815260208101848484011115610ed657610ed5610e62565b5b610ee1848285610e98565b509392505050565b600082601f830112610efe57610efd610b7c565b5b8135610f0e848260208601610ea7565b91505092915050565b600060208284031215610f2d57610f2c610b46565b5b600082013567ffffffffffffffff811115610f4b57610f4a610b4b565b5b610f5784828501610ee9565b91505092915050565b60008115159050919050565b610f7581610f60565b82525050565b600081519050919050565b600082825260208201905092915050565b60005b83811015610fb5578082015181840152602081019050610f9a565b83811115610fc4576000848401525b50505050565b6000610fd582610f7b565b610fdf8185610f86565b9350610fef818560208601610f97565b610ff881610b81565b840191505092915050565b60006040820190506110186000830185610f6c565b818103602083015261102a8184610fca565b90509392505050565b60006040820190506110486000830185610e38565b6110556020830184610e38565b9392505050565b60006060820190506110716000830186610a80565b61107e6020830185610a80565b61108b6040830184610a80565b949350505050565b6000819050919050565b6110a681611093565b82525050565b600067ffffffffffffffff82169050919050565b6110c9816110ac565b82525050565b600061ffff82169050919050565b6110e6816110cf565b82525050565b600063ffffffff82169050919050565b611105816110ec565b82525050565b600060a082019050611120600083018861109d565b61112d60208301876110c0565b61113a60408301866110dd565b61114760608301856110fc565b61115460808301846110fc565b9695505050505050565b60008151905061116d81610b50565b92915050565b60006020828403121561118957611188610b46565b5b60006111978482850161115e565b91505092915050565b7f4e487b7100000000000000000000000000000000000000000000000000000000600052603260045260246000fd5b7f4e487b7100000000000000000000000000000000000000000000000000000000600052601160045260246000fd5b600061120982610a76565b915061121483610a76565b925082821015611227576112266111cf565b5b828203905092915050565b7f4e487b7100000000000000000000000000000000000000000000000000000000600052601260045260246000fd5b600061126c82610a76565b915061127783610a76565b92508261128757611286611232565b5b828206905092915050565b600081905092915050565b50565b60006112ad600083611292565b91506112b88261129d565b600082019050919050565b60006112ce826112a0565b915081905091905056fea2646970667358221220b42514e28b44bc21c85d4bc6af4039df4974ad6d0fad4f20bb0e2affd951cc3164736f6c63430008080033","opcodes":"PUSH2 0x160 PUSH1 0x40 MSTORE CALLVALUE DUP1 ISZERO PUSH3 0x12 JUMPI PUSH1 0x0 DUP1 REVERT JUMPDEST POP PUSH1 0x40 MLOAD PUSH3 0x16EE CODESIZE SUB DUP1 PUSH3 0x16EE DUP4 CODECOPY DUP2 DUP2 ADD PUSH1 0x40 MSTORE DUP2 ADD SWAP1 PUSH3 0x38 SWAP2 SWAP1 PUSH3 0x2A0 JUMP JUMPDEST DUP6 DUP1 PUSH20 0xFFFFFFFFFFFFFFFFFFFFFFFFFFFFFFFFFFFFFFFF AND PUSH1 0x80 DUP2 PUSH20 0xFFFFFFFFFFFFFFFFFFFFFFFFFFFFFFFFFFFFFFFF AND PUSH1 0x60 SHL DUP2 MSTORE POP POP POP DUP5 PUSH1 0xA0 DUP2 DUP2 MSTORE POP POP DUP6 PUSH20 0xFFFFFFFFFFFFFFFFFFFFFFFFFFFFFFFFFFFFFFFF AND PUSH1 0xC0 DUP2 PUSH20 0xFFFFFFFFFFFFFFFFFFFFFFFFFFFFFFFFFFFFFFFF AND PUSH1 0x60 SHL DUP2 MSTORE POP POP DUP4 PUSH1 0xE0 DUP2 DUP2 MSTORE POP POP DUP3 PUSH8 0xFFFFFFFFFFFFFFFF AND PUSH2 0x100 DUP2 PUSH8 0xFFFFFFFFFFFFFFFF AND PUSH1 0xC0 SHL DUP2 MSTORE POP POP DUP2 PUSH4 0xFFFFFFFF AND PUSH2 0x120 DUP2 PUSH4 0xFFFFFFFF AND PUSH1 0xE0 SHL DUP2 MSTORE POP POP PUSH1 0x0 PUSH1 0x1 PUSH1 0x14 PUSH2 0x100 EXP DUP2 SLOAD DUP2 PUSH1 0xFF MUL NOT AND SWAP1 DUP4 PUSH1 0x1 DUP2 GT ISZERO PUSH3 0x119 JUMPI PUSH3 0x118 PUSH3 0x33C JUMP JUMPDEST JUMPDEST MUL OR SWAP1 SSTORE POP TIMESTAMP PUSH1 0x2 DUP2 SWAP1 SSTORE POP DUP1 PUSH2 0x140 DUP2 DUP2 MSTORE POP POP POP POP POP POP POP POP PUSH3 0x36B JUMP JUMPDEST PUSH1 0x0 DUP1 REVERT JUMPDEST PUSH1 0x0 PUSH20 0xFFFFFFFFFFFFFFFFFFFFFFFFFFFFFFFFFFFFFFFF DUP3 AND SWAP1 POP SWAP2 SWAP1 POP JUMP JUMPDEST PUSH1 0x0 PUSH3 0x16C DUP3 PUSH3 0x13F JUMP JUMPDEST SWAP1 POP SWAP2 SWAP1 POP JUMP JUMPDEST PUSH3 0x17E DUP2 PUSH3 0x15F JUMP JUMPDEST DUP2 EQ PUSH3 0x18A JUMPI PUSH1 0x0 DUP1 REVERT JUMPDEST POP JUMP JUMPDEST PUSH1 0x0 DUP2 MLOAD SWAP1 POP PUSH3 0x19E DUP2 PUSH3 0x173 JUMP JUMPDEST SWAP3 SWAP2 POP POP JUMP JUMPDEST PUSH1 0x0 DUP2 SWAP1 POP SWAP2 SWAP1 POP JUMP JUMPDEST PUSH3 0x1B9 DUP2 PUSH3 0x1A4 JUMP JUMPDEST DUP2 EQ PUSH3 0x1C5 JUMPI PUSH1 0x0 DUP1 REVERT JUMPDEST POP JUMP JUMPDEST PUSH1 0x0 DUP2 MLOAD SWAP1 POP PUSH3 0x1D9 DUP2 PUSH3 0x1AE JUMP JUMPDEST SWAP3 SWAP2 POP POP JUMP JUMPDEST PUSH1 0x0 DUP2 SWAP1 POP SWAP2 SWAP1 POP JUMP JUMPDEST PUSH3 0x1F4 DUP2 PUSH3 0x1DF JUMP JUMPDEST DUP2 EQ PUSH3 0x200 JUMPI PUSH1 0x0 DUP1 REVERT JUMPDEST POP JUMP JUMPDEST PUSH1 0x0 DUP2 MLOAD SWAP1 POP PUSH3 0x214 DUP2 PUSH3 0x1E9 JUMP JUMPDEST SWAP3 SWAP2 POP POP JUMP JUMPDEST PUSH1 0x0 PUSH8 0xFFFFFFFFFFFFFFFF DUP3 AND SWAP1 POP SWAP2 SWAP1 POP JUMP JUMPDEST PUSH3 0x239 DUP2 PUSH3 0x21A JUMP JUMPDEST DUP2 EQ PUSH3 0x245 JUMPI PUSH1 0x0 DUP1 REVERT JUMPDEST POP JUMP JUMPDEST PUSH1 0x0 DUP2 MLOAD SWAP1 POP PUSH3 0x259 DUP2 PUSH3 0x22E JUMP JUMPDEST SWAP3 SWAP2 POP POP JUMP JUMPDEST PUSH1 0x0 PUSH4 0xFFFFFFFF DUP3 AND SWAP1 POP SWAP2 SWAP1 POP JUMP JUMPDEST PUSH3 0x27A DUP2 PUSH3 0x25F JUMP JUMPDEST DUP2 EQ PUSH3 0x286 JUMPI PUSH1 0x0 DUP1 REVERT JUMPDEST POP JUMP JUMPDEST PUSH1 0x0 DUP2 MLOAD SWAP1 POP PUSH3 0x29A DUP2 PUSH3 0x26F JUMP JUMPDEST SWAP3 SWAP2 POP POP JUMP JUMPDEST PUSH1 0x0 DUP1 PUSH1 0x0 DUP1 PUSH1 0x0 DUP1 PUSH1 0xC0 DUP8 DUP10 SUB SLT ISZERO PUSH3 0x2C0 JUMPI PUSH3 0x2BF PUSH3 0x13A JUMP JUMPDEST JUMPDEST PUSH1 0x0 PUSH3 0x2D0 DUP10 DUP3 DUP11 ADD PUSH3 0x18D JUMP JUMPDEST SWAP7 POP POP PUSH1 0x20 PUSH3 0x2E3 DUP10 DUP3 DUP11 ADD PUSH3 0x1C8 JUMP JUMPDEST SWAP6 POP POP PUSH1 0x40 PUSH3 0x2F6 DUP10 DUP3 DUP11 ADD PUSH3 0x203 JUMP JUMPDEST SWAP5 POP POP PUSH1 0x60 PUSH3 0x309 DUP10 DUP3 DUP11 ADD PUSH3 0x248 JUMP JUMPDEST SWAP4 POP POP PUSH1 0x80 PUSH3 0x31C DUP10 DUP3 DUP11 ADD PUSH3 0x289 JUMP JUMPDEST SWAP3 POP POP PUSH1 0xA0 PUSH3 0x32F DUP10 DUP3 DUP11 ADD PUSH3 0x1C8 JUMP JUMPDEST SWAP2 POP POP SWAP3 SWAP6 POP SWAP3 SWAP6 POP SWAP3 SWAP6 JUMP JUMPDEST PUSH32 0x4E487B7100000000000000000000000000000000000000000000000000000000 PUSH1 0x0 MSTORE PUSH1 0x21 PUSH1 0x4 MSTORE PUSH1 0x24 PUSH1 0x0 REVERT JUMPDEST PUSH1 0x80 MLOAD PUSH1 0x60 SHR PUSH1 0xA0 MLOAD PUSH1 0xC0 MLOAD PUSH1 0x60 SHR PUSH1 0xE0 MLOAD PUSH2 0x100 MLOAD PUSH1 0xC0 SHR PUSH2 0x120 MLOAD PUSH1 0xE0 SHR PUSH2 0x140 MLOAD PUSH2 0x130E PUSH3 0x3E0 PUSH1 0x0 CODECOPY PUSH1 0x0 PUSH2 0x6F9 ADD MSTORE PUSH1 0x0 PUSH2 0x57D ADD MSTORE PUSH1 0x0 PUSH2 0x55A ADD MSTORE PUSH1 0x0 PUSH2 0x539 ADD MSTORE PUSH1 0x0 PUSH2 0x4FD ADD MSTORE PUSH1 0x0 DUP2 DUP2 PUSH2 0x1DC ADD MSTORE PUSH2 0x2D9 ADD MSTORE PUSH1 0x0 DUP2 DUP2 PUSH2 0x219 ADD MSTORE PUSH2 0x26D ADD MSTORE PUSH2 0x130E PUSH1 0x0 RETURN INVALID PUSH1 0x80 PUSH1 0x40 MSTORE PUSH1 0x4 CALLDATASIZE LT PUSH2 0x7B JUMPI PUSH1 0x0 CALLDATALOAD PUSH1 0xE0 SHR DUP1 PUSH4 0x4585E33B GT PUSH2 0x4E JUMPI DUP1 PUSH4 0x4585E33B EQ PUSH2 0x109 JUMPI DUP1 PUSH4 0x460E2049 EQ PUSH2 0x132 JUMPI DUP1 PUSH4 0x473F1DDC EQ PUSH2 0x16F JUMPI DUP1 PUSH4 0x6E04FF0D EQ PUSH2 0x19A JUMPI PUSH2 0x7B JUMP JUMPDEST DUP1 PUSH4 0x9BC33A7 EQ PUSH2 0x80 JUMPI DUP1 PUSH4 0x115CBAF5 EQ PUSH2 0xAB JUMPI DUP1 PUSH4 0x1FE543E3 EQ PUSH2 0xD6 JUMPI DUP1 PUSH4 0x2CFCC539 EQ PUSH2 0xFF JUMPI JUMPDEST PUSH1 0x0 DUP1 REVERT JUMPDEST CALLVALUE DUP1 ISZERO PUSH2 0x8C JUMPI PUSH1 0x0 DUP1 REVERT JUMPDEST POP PUSH2 0x95 PUSH2 0x1D8 JUMP JUMPDEST PUSH1 0x40 MLOAD PUSH2 0xA2 SWAP2 SWAP1 PUSH2 0xA8F JUMP JUMPDEST PUSH1 0x40 MLOAD DUP1 SWAP2 SUB SWAP1 RETURN JUMPDEST CALLVALUE DUP1 ISZERO PUSH2 0xB7 JUMPI PUSH1 0x0 DUP1 REVERT JUMPDEST POP PUSH2 0xC0 PUSH2 0x200 JUMP JUMPDEST PUSH1 0x40 MLOAD PUSH2 0xCD SWAP2 SWAP1 PUSH2 0xB21 JUMP JUMPDEST PUSH1 0x40 MLOAD DUP1 SWAP2 SUB SWAP1 RETURN JUMPDEST CALLVALUE DUP1 ISZERO PUSH2 0xE2 JUMPI PUSH1 0x0 DUP1 REVERT JUMPDEST POP PUSH2 0xFD PUSH1 0x4 DUP1 CALLDATASIZE SUB DUP2 ADD SWAP1 PUSH2 0xF8 SWAP2 SWAP1 PUSH2 0xCD5 JUMP JUMPDEST PUSH2 0x217 JUMP JUMPDEST STOP JUMPDEST PUSH2 0x107 PUSH2 0x2D7 JUMP JUMPDEST STOP JUMPDEST CALLVALUE DUP1 ISZERO PUSH2 0x115 JUMPI PUSH1 0x0 DUP1 REVERT JUMPDEST POP PUSH2 0x130 PUSH1 0x4 DUP1 CALLDATASIZE SUB DUP2 ADD SWAP1 PUSH2 0x12B SWAP2 SWAP1 PUSH2 0xD8C JUMP JUMPDEST PUSH2 0x446 JUMP JUMPDEST STOP JUMPDEST CALLVALUE DUP1 ISZERO PUSH2 0x13E JUMPI PUSH1 0x0 DUP1 REVERT JUMPDEST POP PUSH2 0x159 PUSH1 0x4 DUP1 CALLDATASIZE SUB DUP2 ADD SWAP1 PUSH2 0x154 SWAP2 SWAP1 PUSH2 0xDD9 JUMP JUMPDEST PUSH2 0x645 JUMP JUMPDEST PUSH1 0x40 MLOAD PUSH2 0x166 SWAP2 SWAP1 PUSH2 0xE47 JUMP JUMPDEST PUSH1 0x40 MLOAD DUP1 SWAP2 SUB SWAP1 RETURN JUMPDEST CALLVALUE DUP1 ISZERO PUSH2 0x17B JUMPI PUSH1 0x0 DUP1 REVERT JUMPDEST POP PUSH2 0x184 PUSH2 0x68C JUMP JUMPDEST PUSH1 0x40 MLOAD PUSH2 0x191 SWAP2 SWAP1 PUSH2 0xE47 JUMP JUMPDEST PUSH1 0x40 MLOAD DUP1 SWAP2 SUB SWAP1 RETURN JUMPDEST CALLVALUE DUP1 ISZERO PUSH2 0x1A6 JUMPI PUSH1 0x0 DUP1 REVERT JUMPDEST POP PUSH2 0x1C1 PUSH1 0x4 DUP1 CALLDATASIZE SUB DUP2 ADD SWAP1 PUSH2 0x1BC SWAP2 SWAP1 PUSH2 0xF17 JUMP JUMPDEST PUSH2 0x6B6 JUMP JUMPDEST PUSH1 0x40 MLOAD PUSH2 0x1CF SWAP3 SWAP2 SWAP1 PUSH2 0x1003 JUMP JUMPDEST PUSH1 0x40 MLOAD DUP1 SWAP2 SUB SWAP1 RETURN JUMPDEST PUSH1 0x0 PUSH32 0x0 SWAP1 POP SWAP1 JUMP JUMPDEST PUSH1 0x0 PUSH1 0x1 PUSH1 0x14 SWAP1 SLOAD SWAP1 PUSH2 0x100 EXP SWAP1 DIV PUSH1 0xFF AND SWAP1 POP SWAP1 JUMP JUMPDEST PUSH32 0x0 PUSH20 0xFFFFFFFFFFFFFFFFFFFFFFFFFFFFFFFFFFFFFFFF AND CALLER PUSH20 0xFFFFFFFFFFFFFFFFFFFFFFFFFFFFFFFFFFFFFFFF AND EQ PUSH2 0x2C9 JUMPI CALLER PUSH32 0x0 PUSH1 0x40 MLOAD PUSH32 0x1CF993F400000000000000000000000000000000000000000000000000000000 DUP2 MSTORE PUSH1 0x4 ADD PUSH2 0x2C0 SWAP3 SWAP2 SWAP1 PUSH2 0x1033 JUMP JUMPDEST PUSH1 0x40 MLOAD DUP1 SWAP2 SUB SWAP1 REVERT JUMPDEST PUSH2 0x2D3 DUP3 DUP3 PUSH2 0x79E JUMP JUMPDEST POP POP JUMP JUMPDEST PUSH32 0x0 CALLVALUE LT ISZERO PUSH2 0x331 JUMPI PUSH1 0x40 MLOAD PUSH32 0xBD4E069500000000000000000000000000000000000000000000000000000000 DUP2 MSTORE PUSH1 0x4 ADD PUSH1 0x40 MLOAD DUP1 SWAP2 SUB SWAP1 REVERT JUMPDEST PUSH1 0x0 PUSH1 0x1 DUP2 GT ISZERO PUSH2 0x345 JUMPI PUSH2 0x344 PUSH2 0xAAA JUMP JUMPDEST JUMPDEST PUSH1 0x1 PUSH1 0x14 SWAP1 SLOAD SWAP1 PUSH2 0x100 EXP SWAP1 DIV PUSH1 0xFF AND PUSH1 0x1 DUP2 GT ISZERO PUSH2 0x367 JUMPI PUSH2 0x366 PUSH2 0xAAA JUMP JUMPDEST JUMPDEST EQ PUSH2 0x39E JUMPI PUSH1 0x40 MLOAD PUSH32 0x1425571C00000000000000000000000000000000000000000000000000000000 DUP2 MSTORE PUSH1 0x4 ADD PUSH1 0x40 MLOAD DUP1 SWAP2 SUB SWAP1 REVERT JUMPDEST PUSH1 0x0 CALLER SWAP1 DUP1 PUSH1 0x1 DUP2 SLOAD ADD DUP1 DUP3 SSTORE DUP1 SWAP2 POP POP PUSH1 0x1 SWAP1 SUB SWAP1 PUSH1 0x0 MSTORE PUSH1 0x20 PUSH1 0x0 KECCAK256 ADD PUSH1 0x0 SWAP1 SWAP2 SWAP1 SWAP2 SWAP1 SWAP2 PUSH2 0x100 EXP DUP2 SLOAD DUP2 PUSH20 0xFFFFFFFFFFFFFFFFFFFFFFFFFFFFFFFFFFFFFFFF MUL NOT AND SWAP1 DUP4 PUSH20 0xFFFFFFFFFFFFFFFFFFFFFFFFFFFFFFFFFFFFFFFF AND MUL OR SWAP1 SSTORE POP CALLER PUSH20 0xFFFFFFFFFFFFFFFFFFFFFFFFFFFFFFFFFFFFFFFF AND PUSH32 0x805E1D667BDDB8A95F0F09880CF94F403FB596CE79928D9F29B74203BA284D4 PUSH1 0x40 MLOAD PUSH1 0x40 MLOAD DUP1 SWAP2 SUB SWAP1 LOG2 JUMP JUMPDEST PUSH1 0x0 PUSH2 0x460 PUSH1 0x40 MLOAD DUP1 PUSH1 0x20 ADD PUSH1 0x40 MSTORE DUP1 PUSH1 0x0 DUP2 MSTORE POP PUSH2 0x6B6 JUMP JUMPDEST POP SWAP1 POP DUP1 PUSH2 0x4CF JUMPI SELFBALANCE PUSH1 0x0 DUP1 SLOAD SWAP1 POP PUSH1 0x1 PUSH1 0x14 SWAP1 SLOAD SWAP1 PUSH2 0x100 EXP SWAP1 DIV PUSH1 0xFF AND PUSH1 0x1 DUP2 GT ISZERO PUSH2 0x491 JUMPI PUSH2 0x490 PUSH2 0xAAA JUMP JUMPDEST JUMPDEST PUSH1 0x40 MLOAD PUSH32 0x584327AA00000000000000000000000000000000000000000000000000000000 DUP2 MSTORE PUSH1 0x4 ADD PUSH2 0x4C6 SWAP4 SWAP3 SWAP2 SWAP1 PUSH2 0x105C JUMP JUMPDEST PUSH1 0x40 MLOAD DUP1 SWAP2 SUB SWAP1 REVERT JUMPDEST PUSH1 0x1 DUP1 PUSH1 0x14 PUSH2 0x100 EXP DUP2 SLOAD DUP2 PUSH1 0xFF MUL NOT AND SWAP1 DUP4 PUSH1 0x1 DUP2 GT ISZERO PUSH2 0x4F4 JUMPI PUSH2 0x4F3 PUSH2 0xAAA JUMP JUMPDEST JUMPDEST MUL OR SWAP1 SSTORE POP PUSH1 0x0 PUSH32 0x0 PUSH20 0xFFFFFFFFFFFFFFFFFFFFFFFFFFFFFFFFFFFFFFFF AND PUSH4 0x5D3B1D30 PUSH32 0x0 PUSH32 0x0 PUSH1 0x3 PUSH32 0x0 PUSH1 0x1 PUSH1 0x40 MLOAD DUP7 PUSH4 0xFFFFFFFF AND PUSH1 0xE0 SHL DUP2 MSTORE PUSH1 0x4 ADD PUSH2 0x5BE SWAP6 SWAP5 SWAP4 SWAP3 SWAP2 SWAP1 PUSH2 0x110B JUMP JUMPDEST PUSH1 0x20 PUSH1 0x40 MLOAD DUP1 DUP4 SUB DUP2 PUSH1 0x0 DUP8 DUP1 EXTCODESIZE ISZERO DUP1 ISZERO PUSH2 0x5D8 JUMPI PUSH1 0x0 DUP1 REVERT JUMPDEST POP GAS CALL ISZERO DUP1 ISZERO PUSH2 0x5EC JUMPI RETURNDATASIZE PUSH1 0x0 DUP1 RETURNDATACOPY RETURNDATASIZE PUSH1 0x0 REVERT JUMPDEST POP POP POP POP PUSH1 0x40 MLOAD RETURNDATASIZE PUSH1 0x1F NOT PUSH1 0x1F DUP3 ADD AND DUP3 ADD DUP1 PUSH1 0x40 MSTORE POP DUP2 ADD SWAP1 PUSH2 0x610 SWAP2 SWAP1 PUSH2 0x1173 JUMP JUMPDEST SWAP1 POP DUP1 PUSH32 0xCD6E45C8998311CAB7E9D4385596CAC867E20A0587194B954FA3A731C93CE78B PUSH1 0x40 MLOAD PUSH1 0x40 MLOAD DUP1 SWAP2 SUB SWAP1 LOG2 POP POP POP POP JUMP JUMPDEST PUSH1 0x0 DUP1 DUP3 DUP2 SLOAD DUP2 LT PUSH2 0x65A JUMPI PUSH2 0x659 PUSH2 0x11A0 JUMP JUMPDEST JUMPDEST SWAP1 PUSH1 0x0 MSTORE PUSH1 0x20 PUSH1 0x0 KECCAK256 ADD PUSH1 0x0 SWAP1 SLOAD SWAP1 PUSH2 0x100 EXP SWAP1 DIV PUSH20 0xFFFFFFFFFFFFFFFFFFFFFFFFFFFFFFFFFFFFFFFF AND SWAP1 POP SWAP2 SWAP1 POP JUMP JUMPDEST PUSH1 0x0 PUSH1 0x1 PUSH1 0x0 SWAP1 SLOAD SWAP1 PUSH2 0x100 EXP SWAP1 DIV PUSH20 0xFFFFFFFFFFFFFFFFFFFFFFFFFFFFFFFFFFFFFFFF AND SWAP1 POP SWAP1 JUMP JUMPDEST PUSH1 0x0 PUSH1 0x60 PUSH1 0x0 PUSH1 0x1 PUSH1 0x14 SWAP1 SLOAD SWAP1 PUSH2 0x100 EXP SWAP1 DIV PUSH1 0xFF AND PUSH1 0x1 DUP2 GT ISZERO PUSH2 0x6DE JUMPI PUSH2 0x6DD PUSH2 0xAAA JUMP JUMPDEST JUMPDEST PUSH1 0x0 PUSH1 0x1 DUP2 GT ISZERO PUSH2 0x6F2 JUMPI PUSH2 0x6F1 PUSH2 0xAAA JUMP JUMPDEST JUMPDEST EQ SWAP1 POP PUSH1 0x0 PUSH32 0x0 PUSH1 0x2 SLOAD TIMESTAMP PUSH2 0x726 SWAP2 SWAP1 PUSH2 0x11FE JUMP JUMPDEST GT SWAP1 POP PUSH1 0x0 DUP1 PUSH1 0x0 DUP1 SLOAD SWAP1 POP GT SWAP1 POP PUSH1 0x0 DUP1 SELFBALANCE GT SWAP1 POP DUP4 DUP1 ISZERO PUSH2 0x746 JUMPI POP DUP3 JUMPDEST DUP1 ISZERO PUSH2 0x74F JUMPI POP DUP2 JUMPDEST DUP1 ISZERO PUSH2 0x758 JUMPI POP DUP1 JUMPDEST SWAP6 POP DUP6 PUSH1 0x40 MLOAD DUP1 PUSH1 0x40 ADD PUSH1 0x40 MSTORE DUP1 PUSH1 0x3 DUP2 MSTORE PUSH1 0x20 ADD PUSH32 0x3078300000000000000000000000000000000000000000000000000000000000 DUP2 MSTORE POP SWAP6 POP SWAP6 POP POP POP POP POP SWAP2 POP SWAP2 JUMP JUMPDEST PUSH1 0x0 DUP1 DUP1 SLOAD SWAP1 POP DUP3 PUSH1 0x0 DUP2 MLOAD DUP2 LT PUSH2 0x7B9 JUMPI PUSH2 0x7B8 PUSH2 0x11A0 JUMP JUMPDEST JUMPDEST PUSH1 0x20 MUL PUSH1 0x20 ADD ADD MLOAD PUSH2 0x7CB SWAP2 SWAP1 PUSH2 0x1261 JUMP JUMPDEST SWAP1 POP PUSH1 0x0 DUP1 DUP3 DUP2 SLOAD DUP2 LT PUSH2 0x7E2 JUMPI PUSH2 0x7E1 PUSH2 0x11A0 JUMP JUMPDEST JUMPDEST SWAP1 PUSH1 0x0 MSTORE PUSH1 0x20 PUSH1 0x0 KECCAK256 ADD PUSH1 0x0 SWAP1 SLOAD SWAP1 PUSH2 0x100 EXP SWAP1 DIV PUSH20 0xFFFFFFFFFFFFFFFFFFFFFFFFFFFFFFFFFFFFFFFF AND SWAP1 POP DUP1 PUSH1 0x1 PUSH1 0x0 PUSH2 0x100 EXP DUP2 SLOAD DUP2 PUSH20 0xFFFFFFFFFFFFFFFFFFFFFFFFFFFFFFFFFFFFFFFF MUL NOT AND SWAP1 DUP4 PUSH20 0xFFFFFFFFFFFFFFFFFFFFFFFFFFFFFFFFFFFFFFFF AND MUL OR SWAP1 SSTORE POP PUSH1 0x0 PUSH1 0x1 PUSH1 0x14 PUSH2 0x100 EXP DUP2 SLOAD DUP2 PUSH1 0xFF MUL NOT AND SWAP1 DUP4 PUSH1 0x1 DUP2 GT ISZERO PUSH2 0x876 JUMPI PUSH2 0x875 PUSH2 0xAAA JUMP JUMPDEST JUMPDEST MUL OR SWAP1 SSTORE POP PUSH1 0x0 PUSH8 0xFFFFFFFFFFFFFFFF DUP2 GT ISZERO PUSH2 0x896 JUMPI PUSH2 0x895 PUSH2 0xB92 JUMP JUMPDEST JUMPDEST PUSH1 0x40 MLOAD SWAP1 DUP1 DUP3 MSTORE DUP1 PUSH1 0x20 MUL PUSH1 0x20 ADD DUP3 ADD PUSH1 0x40 MSTORE DUP1 ISZERO PUSH2 0x8C4 JUMPI DUP2 PUSH1 0x20 ADD PUSH1 0x20 DUP3 MUL DUP1 CALLDATASIZE DUP4 CALLDATACOPY DUP1 DUP3 ADD SWAP2 POP POP SWAP1 POP JUMPDEST POP PUSH1 0x0 SWAP1 DUP1 MLOAD SWAP1 PUSH1 0x20 ADD SWAP1 PUSH2 0x8DA SWAP3 SWAP2 SWAP1 PUSH2 0x9CF JUMP JUMPDEST POP TIMESTAMP PUSH1 0x2 DUP2 SWAP1 SSTORE POP PUSH1 0x0 DUP2 PUSH20 0xFFFFFFFFFFFFFFFFFFFFFFFFFFFFFFFFFFFFFFFF AND SELFBALANCE PUSH1 0x40 MLOAD PUSH2 0x908 SWAP1 PUSH2 0x12C3 JUMP JUMPDEST PUSH1 0x0 PUSH1 0x40 MLOAD DUP1 DUP4 SUB DUP2 DUP6 DUP8 GAS CALL SWAP3 POP POP POP RETURNDATASIZE DUP1 PUSH1 0x0 DUP2 EQ PUSH2 0x945 JUMPI PUSH1 0x40 MLOAD SWAP2 POP PUSH1 0x1F NOT PUSH1 0x3F RETURNDATASIZE ADD AND DUP3 ADD PUSH1 0x40 MSTORE RETURNDATASIZE DUP3 MSTORE RETURNDATASIZE PUSH1 0x0 PUSH1 0x20 DUP5 ADD RETURNDATACOPY PUSH2 0x94A JUMP JUMPDEST PUSH1 0x60 SWAP2 POP JUMPDEST POP POP SWAP1 POP DUP1 PUSH2 0x985 JUMPI PUSH1 0x40 MLOAD PUSH32 0xA1D04B3900000000000000000000000000000000000000000000000000000000 DUP2 MSTORE PUSH1 0x4 ADD PUSH1 0x40 MLOAD DUP1 SWAP2 SUB SWAP1 REVERT JUMPDEST DUP2 PUSH20 0xFFFFFFFFFFFFFFFFFFFFFFFFFFFFFFFFFFFFFFFF AND PUSH32 0x5B690EC4A06FE979403046EAEEA5B3CE38524683C3001F662C8B5A829632F7DF PUSH1 0x40 MLOAD PUSH1 0x40 MLOAD DUP1 SWAP2 SUB SWAP1 LOG2 POP POP POP POP POP JUMP JUMPDEST DUP3 DUP1 SLOAD DUP3 DUP3 SSTORE SWAP1 PUSH1 0x0 MSTORE PUSH1 0x20 PUSH1 0x0 KECCAK256 SWAP1 DUP2 ADD SWAP3 DUP3 ISZERO PUSH2 0xA48 JUMPI SWAP2 PUSH1 0x20 MUL DUP3 ADD JUMPDEST DUP3 DUP2 GT ISZERO PUSH2 0xA47 JUMPI DUP3 MLOAD DUP3 PUSH1 0x0 PUSH2 0x100 EXP DUP2 SLOAD DUP2 PUSH20 0xFFFFFFFFFFFFFFFFFFFFFFFFFFFFFFFFFFFFFFFF MUL NOT AND SWAP1 DUP4 PUSH20 0xFFFFFFFFFFFFFFFFFFFFFFFFFFFFFFFFFFFFFFFF AND MUL OR SWAP1 SSTORE POP SWAP2 PUSH1 0x20 ADD SWAP2 SWAP1 PUSH1 0x1 ADD SWAP1 PUSH2 0x9EF JUMP JUMPDEST JUMPDEST POP SWAP1 POP PUSH2 0xA55 SWAP2 SWAP1 PUSH2 0xA59 JUMP JUMPDEST POP SWAP1 JUMP JUMPDEST JUMPDEST DUP1 DUP3 GT ISZERO PUSH2 0xA72 JUMPI PUSH1 0x0 DUP2 PUSH1 0x0 SWAP1 SSTORE POP PUSH1 0x1 ADD PUSH2 0xA5A JUMP JUMPDEST POP SWAP1 JUMP JUMPDEST PUSH1 0x0 DUP2 SWAP1 POP SWAP2 SWAP1 POP JUMP JUMPDEST PUSH2 0xA89 DUP2 PUSH2 0xA76 JUMP JUMPDEST DUP3 MSTORE POP POP JUMP JUMPDEST PUSH1 0x0 PUSH1 0x20 DUP3 ADD SWAP1 POP PUSH2 0xAA4 PUSH1 0x0 DUP4 ADD DUP5 PUSH2 0xA80 JUMP JUMPDEST SWAP3 SWAP2 POP POP JUMP JUMPDEST PUSH32 0x4E487B7100000000000000000000000000000000000000000000000000000000 PUSH1 0x0 MSTORE PUSH1 0x21 PUSH1 0x4 MSTORE PUSH1 0x24 PUSH1 0x0 REVERT JUMPDEST PUSH1 0x2 DUP2 LT PUSH2 0xAEA JUMPI PUSH2 0xAE9 PUSH2 0xAAA JUMP JUMPDEST JUMPDEST POP JUMP JUMPDEST PUSH1 0x0 DUP2 SWAP1 POP PUSH2 0xAFB DUP3 PUSH2 0xAD9 JUMP JUMPDEST SWAP2 SWAP1 POP JUMP JUMPDEST PUSH1 0x0 PUSH2 0xB0B DUP3 PUSH2 0xAED JUMP JUMPDEST SWAP1 POP SWAP2 SWAP1 POP JUMP JUMPDEST PUSH2 0xB1B DUP2 PUSH2 0xB00 JUMP JUMPDEST DUP3 MSTORE POP POP JUMP JUMPDEST PUSH1 0x0 PUSH1 0x20 DUP3 ADD SWAP1 POP PUSH2 0xB36 PUSH1 0x0 DUP4 ADD DUP5 PUSH2 0xB12 JUMP JUMPDEST SWAP3 SWAP2 POP POP JUMP JUMPDEST PUSH1 0x0 PUSH1 0x40 MLOAD SWAP1 POP SWAP1 JUMP JUMPDEST PUSH1 0x0 DUP1 REVERT JUMPDEST PUSH1 0x0 DUP1 REVERT JUMPDEST PUSH2 0xB59 DUP2 PUSH2 0xA76 JUMP JUMPDEST DUP2 EQ PUSH2 0xB64 JUMPI PUSH1 0x0 DUP1 REVERT JUMPDEST POP JUMP JUMPDEST PUSH1 0x0 DUP2 CALLDATALOAD SWAP1 POP PUSH2 0xB76 DUP2 PUSH2 0xB50 JUMP JUMPDEST SWAP3 SWAP2 POP POP JUMP JUMPDEST PUSH1 0x0 DUP1 REVERT JUMPDEST PUSH1 0x0 PUSH1 0x1F NOT PUSH1 0x1F DUP4 ADD AND SWAP1 POP SWAP2 SWAP1 POP JUMP JUMPDEST PUSH32 0x4E487B7100000000000000000000000000000000000000000000000000000000 PUSH1 0x0 MSTORE PUSH1 0x41 PUSH1 0x4 MSTORE PUSH1 0x24 PUSH1 0x0 REVERT JUMPDEST PUSH2 0xBCA DUP3 PUSH2 0xB81 JUMP JUMPDEST DUP2 ADD DUP2 DUP2 LT PUSH8 0xFFFFFFFFFFFFFFFF DUP3 GT OR ISZERO PUSH2 0xBE9 JUMPI PUSH2 0xBE8 PUSH2 0xB92 JUMP JUMPDEST JUMPDEST DUP1 PUSH1 0x40 MSTORE POP POP POP JUMP JUMPDEST PUSH1 0x0 PUSH2 0xBFC PUSH2 0xB3C JUMP JUMPDEST SWAP1 POP PUSH2 0xC08 DUP3 DUP3 PUSH2 0xBC1 JUMP JUMPDEST SWAP2 SWAP1 POP JUMP JUMPDEST PUSH1 0x0 PUSH8 0xFFFFFFFFFFFFFFFF DUP3 GT ISZERO PUSH2 0xC28 JUMPI PUSH2 0xC27 PUSH2 0xB92 JUMP JUMPDEST JUMPDEST PUSH1 0x20 DUP3 MUL SWAP1 POP PUSH1 0x20 DUP2 ADD SWAP1 POP SWAP2 SWAP1 POP JUMP JUMPDEST PUSH1 0x0 DUP1 REVERT JUMPDEST PUSH1 0x0 PUSH2 0xC51 PUSH2 0xC4C DUP5 PUSH2 0xC0D JUMP JUMPDEST PUSH2 0xBF2 JUMP JUMPDEST SWAP1 POP DUP1 DUP4 DUP3 MSTORE PUSH1 0x20 DUP3 ADD SWAP1 POP PUSH1 0x20 DUP5 MUL DUP4 ADD DUP6 DUP2 GT ISZERO PUSH2 0xC74 JUMPI PUSH2 0xC73 PUSH2 0xC39 JUMP JUMPDEST JUMPDEST DUP4 JUMPDEST DUP2 DUP2 LT ISZERO PUSH2 0xC9D JUMPI DUP1 PUSH2 0xC89 DUP9 DUP3 PUSH2 0xB67 JUMP JUMPDEST DUP5 MSTORE PUSH1 0x20 DUP5 ADD SWAP4 POP POP PUSH1 0x20 DUP2 ADD SWAP1 POP PUSH2 0xC76 JUMP JUMPDEST POP POP POP SWAP4 SWAP3 POP POP POP JUMP JUMPDEST PUSH1 0x0 DUP3 PUSH1 0x1F DUP4 ADD SLT PUSH2 0xCBC JUMPI PUSH2 0xCBB PUSH2 0xB7C JUMP JUMPDEST JUMPDEST DUP2 CALLDATALOAD PUSH2 0xCCC DUP5 DUP3 PUSH1 0x20 DUP7 ADD PUSH2 0xC3E JUMP JUMPDEST SWAP2 POP POP SWAP3 SWAP2 POP POP JUMP JUMPDEST PUSH1 0x0 DUP1 PUSH1 0x40 DUP4 DUP6 SUB SLT ISZERO PUSH2 0xCEC JUMPI PUSH2 0xCEB PUSH2 0xB46 JUMP JUMPDEST JUMPDEST PUSH1 0x0 PUSH2 0xCFA DUP6 DUP3 DUP7 ADD PUSH2 0xB67 JUMP JUMPDEST SWAP3 POP POP PUSH1 0x20 DUP4 ADD CALLDATALOAD PUSH8 0xFFFFFFFFFFFFFFFF DUP2 GT ISZERO PUSH2 0xD1B JUMPI PUSH2 0xD1A PUSH2 0xB4B JUMP JUMPDEST JUMPDEST PUSH2 0xD27 DUP6 DUP3 DUP7 ADD PUSH2 0xCA7 JUMP JUMPDEST SWAP2 POP POP SWAP3 POP SWAP3 SWAP1 POP JUMP JUMPDEST PUSH1 0x0 DUP1 REVERT JUMPDEST PUSH1 0x0 DUP1 DUP4 PUSH1 0x1F DUP5 ADD SLT PUSH2 0xD4C JUMPI PUSH2 0xD4B PUSH2 0xB7C JUMP JUMPDEST JUMPDEST DUP3 CALLDATALOAD SWAP1 POP PUSH8 0xFFFFFFFFFFFFFFFF DUP2 GT ISZERO PUSH2 0xD69 JUMPI PUSH2 0xD68 PUSH2 0xD31 JUMP JUMPDEST JUMPDEST PUSH1 0x20 DUP4 ADD SWAP2 POP DUP4 PUSH1 0x1 DUP3 MUL DUP4 ADD GT ISZERO PUSH2 0xD85 JUMPI PUSH2 0xD84 PUSH2 0xC39 JUMP JUMPDEST JUMPDEST SWAP3 POP SWAP3 SWAP1 POP JUMP JUMPDEST PUSH1 0x0 DUP1 PUSH1 0x20 DUP4 DUP6 SUB SLT ISZERO PUSH2 0xDA3 JUMPI PUSH2 0xDA2 PUSH2 0xB46 JUMP JUMPDEST JUMPDEST PUSH1 0x0 DUP4 ADD CALLDATALOAD PUSH8 0xFFFFFFFFFFFFFFFF DUP2 GT ISZERO PUSH2 0xDC1 JUMPI PUSH2 0xDC0 PUSH2 0xB4B JUMP JUMPDEST JUMPDEST PUSH2 0xDCD DUP6 DUP3 DUP7 ADD PUSH2 0xD36 JUMP JUMPDEST SWAP3 POP SWAP3 POP POP SWAP3 POP SWAP3 SWAP1 POP JUMP JUMPDEST PUSH1 0x0 PUSH1 0x20 DUP3 DUP5 SUB SLT ISZERO PUSH2 0xDEF JUMPI PUSH2 0xDEE PUSH2 0xB46 JUMP JUMPDEST JUMPDEST PUSH1 0x0 PUSH2 0xDFD DUP5 DUP3 DUP6 ADD PUSH2 0xB67 JUMP JUMPDEST SWAP2 POP POP SWAP3 SWAP2 POP POP JUMP JUMPDEST PUSH1 0x0 PUSH20 0xFFFFFFFFFFFFFFFFFFFFFFFFFFFFFFFFFFFFFFFF DUP3 AND SWAP1 POP SWAP2 SWAP1 POP JUMP JUMPDEST PUSH1 0x0 PUSH2 0xE31 DUP3 PUSH2 0xE06 JUMP JUMPDEST SWAP1 POP SWAP2 SWAP1 POP JUMP JUMPDEST PUSH2 0xE41 DUP2 PUSH2 0xE26 JUMP JUMPDEST DUP3 MSTORE POP POP JUMP JUMPDEST PUSH1 0x0 PUSH1 0x20 DUP3 ADD SWAP1 POP PUSH2 0xE5C PUSH1 0x0 DUP4 ADD DUP5 PUSH2 0xE38 JUMP JUMPDEST SWAP3 SWAP2 POP POP JUMP JUMPDEST PUSH1 0x0 DUP1 REVERT JUMPDEST PUSH1 0x0 PUSH8 0xFFFFFFFFFFFFFFFF DUP3 GT ISZERO PUSH2 0xE82 JUMPI PUSH2 0xE81 PUSH2 0xB92 JUMP JUMPDEST JUMPDEST PUSH2 0xE8B DUP3 PUSH2 0xB81 JUMP JUMPDEST SWAP1 POP PUSH1 0x20 DUP2 ADD SWAP1 POP SWAP2 SWAP1 POP JUMP JUMPDEST DUP3 DUP2 DUP4 CALLDATACOPY PUSH1 0x0 DUP4 DUP4 ADD MSTORE POP POP POP JUMP JUMPDEST PUSH1 0x0 PUSH2 0xEBA PUSH2 0xEB5 DUP5 PUSH2 0xE67 JUMP JUMPDEST PUSH2 0xBF2 JUMP JUMPDEST SWAP1 POP DUP3 DUP2 MSTORE PUSH1 0x20 DUP2 ADD DUP5 DUP5 DUP5 ADD GT ISZERO PUSH2 0xED6 JUMPI PUSH2 0xED5 PUSH2 0xE62 JUMP JUMPDEST JUMPDEST PUSH2 0xEE1 DUP5 DUP3 DUP6 PUSH2 0xE98 JUMP JUMPDEST POP SWAP4 SWAP3 POP POP POP JUMP JUMPDEST PUSH1 0x0 DUP3 PUSH1 0x1F DUP4 ADD SLT PUSH2 0xEFE JUMPI PUSH2 0xEFD PUSH2 0xB7C JUMP JUMPDEST JUMPDEST DUP2 CALLDATALOAD PUSH2 0xF0E DUP5 DUP3 PUSH1 0x20 DUP7 ADD PUSH2 0xEA7 JUMP JUMPDEST SWAP2 POP POP SWAP3 SWAP2 POP POP JUMP JUMPDEST PUSH1 0x0 PUSH1 0x20 DUP3 DUP5 SUB SLT ISZERO PUSH2 0xF2D JUMPI PUSH2 0xF2C PUSH2 0xB46 JUMP JUMPDEST JUMPDEST PUSH1 0x0 DUP3 ADD CALLDATALOAD PUSH8 0xFFFFFFFFFFFFFFFF DUP2 GT ISZERO PUSH2 0xF4B JUMPI PUSH2 0xF4A PUSH2 0xB4B JUMP JUMPDEST JUMPDEST PUSH2 0xF57 DUP5 DUP3 DUP6 ADD PUSH2 0xEE9 JUMP JUMPDEST SWAP2 POP POP SWAP3 SWAP2 POP POP JUMP JUMPDEST PUSH1 0x0 DUP2 ISZERO ISZERO SWAP1 POP SWAP2 SWAP1 POP JUMP JUMPDEST PUSH2 0xF75 DUP2 PUSH2 0xF60 JUMP JUMPDEST DUP3 MSTORE POP POP JUMP JUMPDEST PUSH1 0x0 DUP2 MLOAD SWAP1 POP SWAP2 SWAP1 POP JUMP JUMPDEST PUSH1 0x0 DUP3 DUP3 MSTORE PUSH1 0x20 DUP3 ADD SWAP1 POP SWAP3 SWAP2 POP POP JUMP JUMPDEST PUSH1 0x0 JUMPDEST DUP4 DUP2 LT ISZERO PUSH2 0xFB5 JUMPI DUP1 DUP3 ADD MLOAD DUP2 DUP5 ADD MSTORE PUSH1 0x20 DUP2 ADD SWAP1 POP PUSH2 0xF9A JUMP JUMPDEST DUP4 DUP2 GT ISZERO PUSH2 0xFC4 JUMPI PUSH1 0x0 DUP5 DUP5 ADD MSTORE JUMPDEST POP POP POP POP JUMP JUMPDEST PUSH1 0x0 PUSH2 0xFD5 DUP3 PUSH2 0xF7B JUMP JUMPDEST PUSH2 0xFDF DUP2 DUP6 PUSH2 0xF86 JUMP JUMPDEST SWAP4 POP PUSH2 0xFEF DUP2 DUP6 PUSH1 0x20 DUP7 ADD PUSH2 0xF97 JUMP JUMPDEST PUSH2 0xFF8 DUP2 PUSH2 0xB81 JUMP JUMPDEST DUP5 ADD SWAP2 POP POP SWAP3 SWAP2 POP POP JUMP JUMPDEST PUSH1 0x0 PUSH1 0x40 DUP3 ADD SWAP1 POP PUSH2 0x1018 PUSH1 0x0 DUP4 ADD DUP6 PUSH2 0xF6C JUMP JUMPDEST DUP2 DUP2 SUB PUSH1 0x20 DUP4 ADD MSTORE PUSH2 0x102A DUP2 DUP5 PUSH2 0xFCA JUMP JUMPDEST SWAP1 POP SWAP4 SWAP3 POP POP POP JUMP JUMPDEST PUSH1 0x0 PUSH1 0x40 DUP3 ADD SWAP1 POP PUSH2 0x1048 PUSH1 0x0 DUP4 ADD DUP6 PUSH2 0xE38 JUMP JUMPDEST PUSH2 0x1055 PUSH1 0x20 DUP4 ADD DUP5 PUSH2 0xE38 JUMP JUMPDEST SWAP4 SWAP3 POP POP POP JUMP JUMPDEST PUSH1 0x0 PUSH1 0x60 DUP3 ADD SWAP1 POP PUSH2 0x1071 PUSH1 0x0 DUP4 ADD DUP7 PUSH2 0xA80 JUMP JUMPDEST PUSH2 0x107E PUSH1 0x20 DUP4 ADD DUP6 PUSH2 0xA80 JUMP JUMPDEST PUSH2 0x108B PUSH1 0x40 DUP4 ADD DUP5 PUSH2 0xA80 JUMP JUMPDEST SWAP5 SWAP4 POP POP POP POP JUMP JUMPDEST PUSH1 0x0 DUP2 SWAP1 POP SWAP2 SWAP1 POP JUMP JUMPDEST PUSH2 0x10A6 DUP2 PUSH2 0x1093 JUMP JUMPDEST DUP3 MSTORE POP POP JUMP JUMPDEST PUSH1 0x0 PUSH8 0xFFFFFFFFFFFFFFFF DUP3 AND SWAP1 POP SWAP2 SWAP1 POP JUMP JUMPDEST PUSH2 0x10C9 DUP2 PUSH2 0x10AC JUMP JUMPDEST DUP3 MSTORE POP POP JUMP JUMPDEST PUSH1 0x0 PUSH2 0xFFFF DUP3 AND SWAP1 POP SWAP2 SWAP1 POP JUMP JUMPDEST PUSH2 0x10E6 DUP2 PUSH2 0x10CF JUMP JUMPDEST DUP3 MSTORE POP POP JUMP JUMPDEST PUSH1 0x0 PUSH4 0xFFFFFFFF DUP3 AND SWAP1 POP SWAP2 SWAP1 POP JUMP JUMPDEST PUSH2 0x1105 DUP2 PUSH2 0x10EC JUMP JUMPDEST DUP3 MSTORE POP POP JUMP JUMPDEST PUSH1 0x0 PUSH1 0xA0 DUP3 ADD SWAP1 POP PUSH2 0x1120 PUSH1 0x0 DUP4 ADD DUP9 PUSH2 0x109D JUMP JUMPDEST PUSH2 0x112D PUSH1 0x20 DUP4 ADD DUP8 PUSH2 0x10C0 JUMP JUMPDEST PUSH2 0x113A PUSH1 0x40 DUP4 ADD DUP7 PUSH2 0x10DD JUMP JUMPDEST PUSH2 0x1147 PUSH1 0x60 DUP4 ADD DUP6 PUSH2 0x10FC JUMP JUMPDEST PUSH2 0x1154 PUSH1 0x80 DUP4 ADD DUP5 PUSH2 0x10FC JUMP JUMPDEST SWAP7 SWAP6 POP POP POP POP POP POP JUMP JUMPDEST PUSH1 0x0 DUP2 MLOAD SWAP1 POP PUSH2 0x116D DUP2 PUSH2 0xB50 JUMP JUMPDEST SWAP3 SWAP2 POP POP JUMP JUMPDEST PUSH1 0x0 PUSH1 0x20 DUP3 DUP5 SUB SLT ISZERO PUSH2 0x1189 JUMPI PUSH2 0x1188 PUSH2 0xB46 JUMP JUMPDEST JUMPDEST PUSH1 0x0 PUSH2 0x1197 DUP5 DUP3 DUP6 ADD PUSH2 0x115E JUMP JUMPDEST SWAP2 POP POP SWAP3 SWAP2 POP POP JUMP JUMPDEST PUSH32 0x4E487B7100000000000000000000000000000000000000000000000000000000 PUSH1 0x0 MSTORE PUSH1 0x32 PUSH1 0x4 MSTORE PUSH1 0x24 PUSH1 0x0 REVERT JUMPDEST PUSH32 0x4E487B7100000000000000000000000000000000000000000000000000000000 PUSH1 0x0 MSTORE PUSH1 0x11 PUSH1 0x4 MSTORE PUSH1 0x24 PUSH1 0x0 REVERT JUMPDEST PUSH1 0x0 PUSH2 0x1209 DUP3 PUSH2 0xA76 JUMP JUMPDEST SWAP2 POP PUSH2 0x1214 DUP4 PUSH2 0xA76 JUMP JUMPDEST SWAP3 POP DUP3 DUP3 LT ISZERO PUSH2 0x1227 JUMPI PUSH2 0x1226 PUSH2 0x11CF JUMP JUMPDEST JUMPDEST DUP3 DUP3 SUB SWAP1 POP SWAP3 SWAP2 POP POP JUMP JUMPDEST PUSH32 0x4E487B7100000000000000000000000000000000000000000000000000000000 PUSH1 0x0 MSTORE PUSH1 0x12 PUSH1 0x4 MSTORE PUSH1 0x24 PUSH1 0x0 REVERT JUMPDEST PUSH1 0x0 PUSH2 0x126C DUP3 PUSH2 0xA76 JUMP JUMPDEST SWAP2 POP PUSH2 0x1277 DUP4 PUSH2 0xA76 JUMP JUMPDEST SWAP3 POP DUP3 PUSH2 0x1287 JUMPI PUSH2 0x1286 PUSH2 0x1232 JUMP JUMPDEST JUMPDEST DUP3 DUP3 MOD SWAP1 POP SWAP3 SWAP2 POP POP JUMP JUMPDEST PUSH1 0x0 DUP2 SWAP1 POP SWAP3 SWAP2 POP POP JUMP JUMPDEST POP JUMP JUMPDEST PUSH1 0x0 PUSH2 0x12AD PUSH1 0x0 DUP4 PUSH2 0x1292 JUMP JUMPDEST SWAP2 POP PUSH2 0x12B8 DUP3 PUSH2 0x129D JUMP JUMPDEST PUSH1 0x0 DUP3 ADD SWAP1 POP SWAP2 SWAP1 POP JUMP JUMPDEST PUSH1 0x0 PUSH2 0x12CE DUP3 PUSH2 0x12A0 JUMP JUMPDEST SWAP2 POP DUP2 SWAP1 POP SWAP2 SWAP1 POP JUMP INVALID LOG2 PUSH5 0x6970667358 0x22 SLT KECCAK256 0xB4 0x25 EQ 0xE2 DUP12 DIFFICULTY 0xBC 0x21 0xC8 0x5D 0x4B 0xC6 0xAF BLOCKHASH CODECOPY 0xDF 0x49 PUSH21 0xAD6D0FAD4F20BB0E2AFFD951CC3164736F6C634300 ADDMOD ADDMOD STOP CALLER "},"gasEstimates":{"creation":{"codeDepositCost":"975600","executionCost":"infinite","totalCost":"infinite"},"external":{"checkUpkeep(bytes)":"infinite","enterRaffle()":"infinite","getEntranceFee()":"infinite","getPlayers(uint256)":"4989","getRaffleState()":"2641","getRecentWinner()":"2566","performUpkeep(bytes)":"infinite","rawFulfillRandomWords(uint256,uint256[])":"infinite"},"internal":{"fulfillRandomWords(uint256,uint256[] memory)":"infinite"}},"methodIdentifiers":{"checkUpkeep(bytes)":"6e04ff0d","enterRaffle()":"2cfcc539","getEntranceFee()":"09bc33a7","getPlayers(uint256)":"460e2049","getRaffleState()":"115cbaf5","getRecentWinner()":"473f1ddc","performUpkeep(bytes)":"4585e33b","rawFulfillRandomWords(uint256,uint256[])":"1fe543e3"}},"storageLayout":{"storage":[{"astId":208,"contract":"contracts/Raffle.sol:Raffle","label":"s_players","offset":0,"slot":"0","type":"t_array(t_address_payable)dyn_storage"},{"astId":225,"contract":"contracts/Raffle.sol:Raffle","label":"s_recentWinner","offset":0,"slot":"1","type":"t_address"},{"astId":228,"contract":"contracts/Raffle.sol:Raffle","label":"s_raffleState","offset":20,"slot":"1","type":"t_enum(RaffleSate)203"},{"astId":230,"contract":"contracts/Raffle.sol:Raffle","label":"s_lastTimeStamp","offset":0,"slot":"2","type":"t_uint256"}],"types":{"t_address":{"encoding":"inplace","label":"address","numberOfBytes":"20"},"t_address_payable":{"encoding":"inplace","label":"address payable","numberOfBytes":"20"},"t_array(t_address_payable)dyn_storage":{"base":"t_address_payable","encoding":"dynamic_array","label":"address payable[]","numberOfBytes":"32"},"t_enum(RaffleSate)203":{"encoding":"inplace","label":"enum Raffle.RaffleSate","numberOfBytes":"1"},"t_uint256":{"encoding":"inplace","label":"uint256","numberOfBytes":"32"}}},"userdoc":{"kind":"user","methods":{"checkUpkeep(bytes)":{"notice":"Reference: https://docs.chain.link/chainlink-automation/compatible-contracts/"},"getEntranceFee()":{"notice":"This public function returns the entrance fee required to enter in ETH."},"getPlayers(uint256)":{"notice":"This function returns the address of the entered player"}},"notice":"This contract is for creating an untamperable decentralized smart contract","version":1}}}}