{
  "_format": "hh-sol-artifact-1",
  "contractName": "Raffle",
  "sourceName": "contracts/Raffle.sol",
  "abi": [
    {
      "inputs": [
        {
          "internalType": "address",
          "name": "verfCoordinatorV2",
          "type": "address"
        },
        {
          "internalType": "uint256",
          "name": "entranceFee",
          "type": "uint256"
        },
        {
          "internalType": "bytes32",
          "name": "gasLane",
          "type": "bytes32"
        },
        {
          "internalType": "uint64",
          "name": "subscriptionId",
          "type": "uint64"
        },
        {
          "internalType": "uint32",
          "name": "callbackGasLimit",
          "type": "uint32"
        },
        {
          "internalType": "uint256",
          "name": "interval",
          "type": "uint256"
        }
      ],
      "stateMutability": "nonpayable",
      "type": "constructor"
    },
    {
      "inputs": [
        {
          "internalType": "address",
          "name": "have",
          "type": "address"
        },
        {
          "internalType": "address",
          "name": "want",
          "type": "address"
        }
      ],
      "name": "OnlyCoordinatorCanFulfill",
      "type": "error"
    },
    {
      "inputs": [],
      "name": "Raffle__NotEnoughETHEntered",
      "type": "error"
    },
    {
      "inputs": [],
      "name": "Raffle__NotOpen",
      "type": "error"
    },
    {
      "inputs": [],
      "name": "Raffle__TransferFailed",
      "type": "error"
    },
    {
      "inputs": [
        {
          "internalType": "uint256",
          "name": "currentBalance",
          "type": "uint256"
        },
        {
          "internalType": "uint256",
          "name": "numPlayers",
          "type": "uint256"
        },
        {
          "internalType": "uint256",
          "name": "raffleState",
          "type": "uint256"
        }
      ],
      "name": "Raffle__UpkeepNotNeeded",
      "type": "error"
    },
    {
      "anonymous": false,
      "inputs": [
        {
          "indexed": true,
          "internalType": "address",
          "name": "player",
          "type": "address"
        }
      ],
      "name": "RaffleEnter",
      "type": "event"
    },
    {
      "anonymous": false,
      "inputs": [
        {
          "indexed": true,
          "internalType": "uint256",
          "name": "requestId",
          "type": "uint256"
        }
      ],
      "name": "RequestedRaffleWinner",
      "type": "event"
    },
    {
      "anonymous": false,
      "inputs": [
        {
          "indexed": true,
          "internalType": "address",
          "name": "winner",
          "type": "address"
        }
      ],
      "name": "WinnerPicked",
      "type": "event"
    },
    {
      "inputs": [
        {
          "internalType": "bytes",
          "name": "",
          "type": "bytes"
        }
      ],
      "name": "checkUpkeep",
      "outputs": [
        {
          "internalType": "bool",
          "name": "upkeepNeeded",
          "type": "bool"
        },
        {
          "internalType": "bytes",
          "name": "",
          "type": "bytes"
        }
      ],
      "stateMutability": "view",
      "type": "function"
    },
    {
      "inputs": [],
      "name": "enterRaffle",
      "outputs": [],
      "stateMutability": "payable",
      "type": "function"
    },
    {
      "inputs": [],
      "name": "getEntranceFee",
      "outputs": [
        {
          "internalType": "uint256",
          "name": "",
          "type": "uint256"
        }
      ],
      "stateMutability": "view",
      "type": "function"
    },
    {
      "inputs": [
        {
          "internalType": "uint256",
          "name": "index",
          "type": "uint256"
        }
      ],
      "name": "getPlayers",
      "outputs": [
        {
          "internalType": "address",
          "name": "",
          "type": "address"
        }
      ],
      "stateMutability": "view",
      "type": "function"
    },
    {
      "inputs": [],
      "name": "getRaffleState",
      "outputs": [
        {
          "internalType": "enum Raffle.RaffleSate",
          "name": "",
          "type": "uint8"
        }
      ],
      "stateMutability": "view",
      "type": "function"
    },
    {
      "inputs": [],
      "name": "getRecentWinner",
      "outputs": [
        {
          "internalType": "address",
          "name": "",
          "type": "address"
        }
      ],
      "stateMutability": "view",
      "type": "function"
    },
    {
      "inputs": [
        {
          "internalType": "bytes",
          "name": "",
          "type": "bytes"
        }
      ],
      "name": "performUpkeep",
      "outputs": [],
      "stateMutability": "nonpayable",
      "type": "function"
    },
    {
      "inputs": [
        {
          "internalType": "uint256",
          "name": "requestId",
          "type": "uint256"
        },
        {
          "internalType": "uint256[]",
          "name": "randomWords",
          "type": "uint256[]"
        }
      ],
      "name": "rawFulfillRandomWords",
      "outputs": [],
      "stateMutability": "nonpayable",
      "type": "function"
    }
  ],
  "bytecode": "0x6101606040523480156200001257600080fd5b50604051620016ee380380620016ee8339818101604052810190620000389190620002a0565b858073ffffffffffffffffffffffffffffffffffffffff1660808173ffffffffffffffffffffffffffffffffffffffff1660601b81525050508460a081815250508573ffffffffffffffffffffffffffffffffffffffff1660c08173ffffffffffffffffffffffffffffffffffffffff1660601b815250508360e081815250508267ffffffffffffffff166101008167ffffffffffffffff1660c01b815250508163ffffffff166101208163ffffffff1660e01b815250506000600160146101000a81548160ff021916908360018111156200011957620001186200033c565b5b0217905550426002819055508061014081815250505050505050506200036b565b600080fd5b600073ffffffffffffffffffffffffffffffffffffffff82169050919050565b60006200016c826200013f565b9050919050565b6200017e816200015f565b81146200018a57600080fd5b50565b6000815190506200019e8162000173565b92915050565b6000819050919050565b620001b981620001a4565b8114620001c557600080fd5b50565b600081519050620001d981620001ae565b92915050565b6000819050919050565b620001f481620001df565b81146200020057600080fd5b50565b6000815190506200021481620001e9565b92915050565b600067ffffffffffffffff82169050919050565b62000239816200021a565b81146200024557600080fd5b50565b60008151905062000259816200022e565b92915050565b600063ffffffff82169050919050565b6200027a816200025f565b81146200028657600080fd5b50565b6000815190506200029a816200026f565b92915050565b60008060008060008060c08789031215620002c057620002bf6200013a565b5b6000620002d089828a016200018d565b9650506020620002e389828a01620001c8565b9550506040620002f689828a0162000203565b94505060606200030989828a0162000248565b93505060806200031c89828a0162000289565b92505060a06200032f89828a01620001c8565b9150509295509295509295565b7f4e487b7100000000000000000000000000000000000000000000000000000000600052602160045260246000fd5b60805160601c60a05160c05160601c60e0516101005160c01c6101205160e01c6101405161130e620003e060003960006106f90152600061057d0152600061055a01526000610539015260006104fd0152600081816101dc01526102d9015260008181610219015261026d015261130e6000f3fe60806040526004361061007b5760003560e01c80634585e33b1161004e5780634585e33b14610109578063460e204914610132578063473f1ddc1461016f5780636e04ff0d1461019a5761007b565b806309bc33a714610080578063115cbaf5146100ab5780631fe543e3146100d65780632cfcc539146100ff575b600080fd5b34801561008c57600080fd5b506100956101d8565b6040516100a29190610a8f565b60405180910390f35b3480156100b757600080fd5b506100c0610200565b6040516100cd9190610b21565b60405180910390f35b3480156100e257600080fd5b506100fd60048036038101906100f89190610cd5565b610217565b005b6101076102d7565b005b34801561011557600080fd5b50610130600480360381019061012b9190610d8c565b610446565b005b34801561013e57600080fd5b5061015960048036038101906101549190610dd9565b610645565b6040516101669190610e47565b60405180910390f35b34801561017b57600080fd5b5061018461068c565b6040516101919190610e47565b60405180910390f35b3480156101a657600080fd5b506101c160048036038101906101bc9190610f17565b6106b6565b6040516101cf929190611003565b60405180910390f35b60007f0000000000000000000000000000000000000000000000000000000000000000905090565b6000600160149054906101000a900460ff16905090565b7f000000000000000000000000000000000000000000000000000000000000000073ffffffffffffffffffffffffffffffffffffffff163373ffffffffffffffffffffffffffffffffffffffff16146102c957337f00000000000000000000000000000000000000000000000000000000000000006040517f1cf993f40000000000000000000000000000000000000000000000000000000081526004016102c0929190611033565b60405180910390fd5b6102d3828261079e565b5050565b7f0000000000000000000000000000000000000000000000000000000000000000341015610331576040517fbd4e069500000000000000000000000000000000000000000000000000000000815260040160405180910390fd5b6000600181111561034557610344610aaa565b5b600160149054906101000a900460ff16600181111561036757610366610aaa565b5b1461039e576040517f1425571c00000000000000000000000000000000000000000000000000000000815260040160405180910390fd5b6000339080600181540180825580915050600190039060005260206000200160009091909190916101000a81548173ffffffffffffffffffffffffffffffffffffffff021916908373ffffffffffffffffffffffffffffffffffffffff1602179055503373ffffffffffffffffffffffffffffffffffffffff167f0805e1d667bddb8a95f0f09880cf94f403fb596ce79928d9f29b74203ba284d460405160405180910390a2565b6000610460604051806020016040528060008152506106b6565b509050806104cf5747600080549050600160149054906101000a900460ff16600181111561049157610490610aaa565b5b6040517f584327aa0000000000000000000000000000000000000000000000000000000081526004016104c69392919061105c565b60405180910390fd5b60018060146101000a81548160ff021916908360018111156104f4576104f3610aaa565b5b021790555060007f000000000000000000000000000000000000000000000000000000000000000073ffffffffffffffffffffffffffffffffffffffff16635d3b1d307f00000000000000000000000000000000000000000000000000000000000000007f000000000000000000000000000000000000000000000000000000000000000060037f000000000000000000000000000000000000000000000000000000000000000060016040518663ffffffff1660e01b81526004016105be95949392919061110b565b602060405180830381600087803b1580156105d857600080fd5b505af11580156105ec573d6000803e3d6000fd5b505050506040513d601f19601f820116820180604052508101906106109190611173565b9050807fcd6e45c8998311cab7e9d4385596cac867e20a0587194b954fa3a731c93ce78b60405160405180910390a250505050565b600080828154811061065a576106596111a0565b5b9060005260206000200160009054906101000a900473ffffffffffffffffffffffffffffffffffffffff169050919050565b6000600160009054906101000a900473ffffffffffffffffffffffffffffffffffffffff16905090565b600060606000600160149054906101000a900460ff1660018111156106de576106dd610aaa565b5b600060018111156106f2576106f1610aaa565b5b14905060007f00000000000000000000000000000000000000000000000000000000000000006002544261072691906111fe565b119050600080600080549050119050600080471190508380156107465750825b801561074f5750815b80156107585750805b9550856040518060400160405280600381526020017f30783000000000000000000000000000000000000000000000000000000000008152509550955050505050915091565b60008080549050826000815181106107b9576107b86111a0565b5b60200260200101516107cb9190611261565b905060008082815481106107e2576107e16111a0565b5b9060005260206000200160009054906101000a900473ffffffffffffffffffffffffffffffffffffffff16905080600160006101000a81548173ffffffffffffffffffffffffffffffffffffffff021916908373ffffffffffffffffffffffffffffffffffffffff1602179055506000600160146101000a81548160ff0219169083600181111561087657610875610aaa565b5b0217905550600067ffffffffffffffff81111561089657610895610b92565b5b6040519080825280602002602001820160405280156108c45781602001602082028036833780820191505090505b50600090805190602001906108da9291906109cf565b504260028190555060008173ffffffffffffffffffffffffffffffffffffffff1647604051610908906112c3565b60006040518083038185875af1925050503d8060008114610945576040519150601f19603f3d011682016040523d82523d6000602084013e61094a565b606091505b5050905080610985576040517fa1d04b3900000000000000000000000000000000000000000000000000000000815260040160405180910390fd5b8173ffffffffffffffffffffffffffffffffffffffff167f5b690ec4a06fe979403046eaeea5b3ce38524683c3001f662c8b5a829632f7df60405160405180910390a25050505050565b828054828255906000526020600020908101928215610a48579160200282015b82811115610a475782518260006101000a81548173ffffffffffffffffffffffffffffffffffffffff021916908373ffffffffffffffffffffffffffffffffffffffff160217905550916020019190600101906109ef565b5b509050610a559190610a59565b5090565b5b80821115610a72576000816000905550600101610a5a565b5090565b6000819050919050565b610a8981610a76565b82525050565b6000602082019050610aa46000830184610a80565b92915050565b7f4e487b7100000000000000000000000000000000000000000000000000000000600052602160045260246000fd5b60028110610aea57610ae9610aaa565b5b50565b6000819050610afb82610ad9565b919050565b6000610b0b82610aed565b9050919050565b610b1b81610b00565b82525050565b6000602082019050610b366000830184610b12565b92915050565b6000604051905090565b600080fd5b600080fd5b610b5981610a76565b8114610b6457600080fd5b50565b600081359050610b7681610b50565b92915050565b600080fd5b6000601f19601f8301169050919050565b7f4e487b7100000000000000000000000000000000000000000000000000000000600052604160045260246000fd5b610bca82610b81565b810181811067ffffffffffffffff82111715610be957610be8610b92565b5b80604052505050565b6000610bfc610b3c565b9050610c088282610bc1565b919050565b600067ffffffffffffffff821115610c2857610c27610b92565b5b602082029050602081019050919050565b600080fd5b6000610c51610c4c84610c0d565b610bf2565b90508083825260208201905060208402830185811115610c7457610c73610c39565b5b835b81811015610c9d5780610c898882610b67565b845260208401935050602081019050610c76565b5050509392505050565b600082601f830112610cbc57610cbb610b7c565b5b8135610ccc848260208601610c3e565b91505092915050565b60008060408385031215610cec57610ceb610b46565b5b6000610cfa85828601610b67565b925050602083013567ffffffffffffffff811115610d1b57610d1a610b4b565b5b610d2785828601610ca7565b9150509250929050565b600080fd5b60008083601f840112610d4c57610d4b610b7c565b5b8235905067ffffffffffffffff811115610d6957610d68610d31565b5b602083019150836001820283011115610d8557610d84610c39565b5b9250929050565b60008060208385031215610da357610da2610b46565b5b600083013567ffffffffffffffff811115610dc157610dc0610b4b565b5b610dcd85828601610d36565b92509250509250929050565b600060208284031215610def57610dee610b46565b5b6000610dfd84828501610b67565b91505092915050565b600073ffffffffffffffffffffffffffffffffffffffff82169050919050565b6000610e3182610e06565b9050919050565b610e4181610e26565b82525050565b6000602082019050610e5c6000830184610e38565b92915050565b600080fd5b600067ffffffffffffffff821115610e8257610e81610b92565b5b610e8b82610b81565b9050602081019050919050565b82818337600083830152505050565b6000610eba610eb584610e67565b610bf2565b905082815260208101848484011115610ed657610ed5610e62565b5b610ee1848285610e98565b509392505050565b600082601f830112610efe57610efd610b7c565b5b8135610f0e848260208601610ea7565b91505092915050565b600060208284031215610f2d57610f2c610b46565b5b600082013567ffffffffffffffff811115610f4b57610f4a610b4b565b5b610f5784828501610ee9565b91505092915050565b60008115159050919050565b610f7581610f60565b82525050565b600081519050919050565b600082825260208201905092915050565b60005b83811015610fb5578082015181840152602081019050610f9a565b83811115610fc4576000848401525b50505050565b6000610fd582610f7b565b610fdf8185610f86565b9350610fef818560208601610f97565b610ff881610b81565b840191505092915050565b60006040820190506110186000830185610f6c565b818103602083015261102a8184610fca565b90509392505050565b60006040820190506110486000830185610e38565b6110556020830184610e38565b9392505050565b60006060820190506110716000830186610a80565b61107e6020830185610a80565b61108b6040830184610a80565b949350505050565b6000819050919050565b6110a681611093565b82525050565b600067ffffffffffffffff82169050919050565b6110c9816110ac565b82525050565b600061ffff82169050919050565b6110e6816110cf565b82525050565b600063ffffffff82169050919050565b611105816110ec565b82525050565b600060a082019050611120600083018861109d565b61112d60208301876110c0565b61113a60408301866110dd565b61114760608301856110fc565b61115460808301846110fc565b9695505050505050565b60008151905061116d81610b50565b92915050565b60006020828403121561118957611188610b46565b5b60006111978482850161115e565b91505092915050565b7f4e487b7100000000000000000000000000000000000000000000000000000000600052603260045260246000fd5b7f4e487b7100000000000000000000000000000000000000000000000000000000600052601160045260246000fd5b600061120982610a76565b915061121483610a76565b925082821015611227576112266111cf565b5b828203905092915050565b7f4e487b7100000000000000000000000000000000000000000000000000000000600052601260045260246000fd5b600061126c82610a76565b915061127783610a76565b92508261128757611286611232565b5b828206905092915050565b600081905092915050565b50565b60006112ad600083611292565b91506112b88261129d565b600082019050919050565b60006112ce826112a0565b915081905091905056fea2646970667358221220b42514e28b44bc21c85d4bc6af4039df4974ad6d0fad4f20bb0e2affd951cc3164736f6c63430008080033",
  "linkReferences": {},
  "deployedLinkReferences": {}
}